{
  "contractName": "DappTokenCrowdsale",
  "abi": [
    {
      "constant": true,
      "inputs": [],
      "name": "hasClosed",
      "outputs": [
        {
          "name": "",
          "type": "bool"
        }
      ],
      "payable": false,
      "stateMutability": "view",
      "type": "function"
    },
    {
      "constant": true,
      "inputs": [],
      "name": "rate",
      "outputs": [
        {
          "name": "",
          "type": "uint256"
        }
      ],
      "payable": false,
      "stateMutability": "view",
      "type": "function"
    },
    {
      "constant": true,
      "inputs": [],
      "name": "cap",
      "outputs": [
        {
          "name": "",
          "type": "uint256"
        }
      ],
      "payable": false,
      "stateMutability": "view",
      "type": "function"
    },
    {
      "constant": true,
      "inputs": [],
      "name": "weiRaised",
      "outputs": [
        {
          "name": "",
          "type": "uint256"
        }
      ],
      "payable": false,
      "stateMutability": "view",
      "type": "function"
    },
    {
      "constant": true,
      "inputs": [
        {
          "name": "",
          "type": "address"
        }
      ],
      "name": "contributions",
      "outputs": [
        {
          "name": "",
          "type": "uint256"
        }
      ],
      "payable": false,
      "stateMutability": "view",
      "type": "function"
    },
    {
      "constant": true,
      "inputs": [],
      "name": "closingTime",
      "outputs": [
        {
          "name": "",
          "type": "uint256"
        }
      ],
      "payable": false,
      "stateMutability": "view",
      "type": "function"
    },
    {
      "constant": true,
      "inputs": [],
      "name": "capReached",
      "outputs": [
        {
          "name": "",
          "type": "bool"
        }
      ],
      "payable": false,
      "stateMutability": "view",
      "type": "function"
    },
    {
      "constant": true,
      "inputs": [],
      "name": "wallet",
      "outputs": [
        {
          "name": "",
          "type": "address"
        }
      ],
      "payable": false,
      "stateMutability": "view",
      "type": "function"
    },
    {
      "constant": true,
      "inputs": [],
      "name": "investorMinCap",
      "outputs": [
        {
          "name": "",
          "type": "uint256"
        }
      ],
      "payable": false,
      "stateMutability": "view",
      "type": "function"
    },
    {
      "constant": true,
      "inputs": [],
      "name": "openingTime",
      "outputs": [
        {
          "name": "",
          "type": "uint256"
        }
      ],
      "payable": false,
      "stateMutability": "view",
      "type": "function"
    },
    {
      "constant": false,
      "inputs": [
        {
          "name": "_beneficiary",
          "type": "address"
        }
      ],
      "name": "buyTokens",
      "outputs": [],
      "payable": true,
      "stateMutability": "payable",
      "type": "function"
    },
    {
      "constant": true,
      "inputs": [],
      "name": "investorHardCap",
      "outputs": [
        {
          "name": "",
          "type": "uint256"
        }
      ],
      "payable": false,
      "stateMutability": "view",
      "type": "function"
    },
    {
      "constant": true,
      "inputs": [],
      "name": "token",
      "outputs": [
        {
          "name": "",
          "type": "address"
        }
      ],
      "payable": false,
      "stateMutability": "view",
      "type": "function"
    },
    {
      "inputs": [
        {
          "name": "_rate",
          "type": "uint256"
        },
        {
          "name": "_walllet",
          "type": "address"
        },
        {
          "name": "_token",
          "type": "address"
        },
        {
          "name": "_cap",
          "type": "uint256"
        },
        {
          "name": "_openingTime",
          "type": "uint256"
        },
        {
          "name": "_closingTime",
          "type": "uint256"
        }
      ],
      "payable": false,
      "stateMutability": "nonpayable",
      "type": "constructor"
    },
    {
      "payable": true,
      "stateMutability": "payable",
      "type": "fallback"
    },
    {
      "anonymous": false,
      "inputs": [
        {
          "indexed": true,
          "name": "purchaser",
          "type": "address"
        },
        {
          "indexed": true,
          "name": "beneficiary",
          "type": "address"
        },
        {
          "indexed": false,
          "name": "value",
          "type": "uint256"
        },
        {
          "indexed": false,
          "name": "amount",
          "type": "uint256"
        }
      ],
      "name": "TokenPurchase",
      "type": "event"
    },
    {
      "constant": true,
      "inputs": [
        {
          "name": "_beneficiary",
          "type": "address"
        }
      ],
      "name": "getUserContribution",
      "outputs": [
        {
          "name": "",
          "type": "uint256"
        }
      ],
      "payable": false,
      "stateMutability": "view",
      "type": "function"
    }
  ],
  "bytecode": "0x608060405266071afd498d0000600755674563918244f4000060085534801561002757600080fd5b5060405160c080610b4f83398101806040528101908080519060200190929190805190602001909291908051906020019092919080519060200190929190805190602001909291908051906020019092919050505081818488888860008311151561009157600080fd5b600073ffffffffffffffffffffffffffffffffffffffff168273ffffffffffffffffffffffffffffffffffffffff16141515156100cd57600080fd5b600073ffffffffffffffffffffffffffffffffffffffff168173ffffffffffffffffffffffffffffffffffffffff161415151561010957600080fd5b8260028190555081600160006101000a81548173ffffffffffffffffffffffffffffffffffffffff021916908373ffffffffffffffffffffffffffffffffffffffff160217905550806000806101000a81548173ffffffffffffffffffffffffffffffffffffffff021916908373ffffffffffffffffffffffffffffffffffffffff1602179055505050506000811115156101a357600080fd5b80600481905550504282101515156101ba57600080fd5b8181101515156101c957600080fd5b81600581905550806006819055505050505050505050610961806101ee6000396000f3006080604052600436106100d0576000357c0100000000000000000000000000000000000000000000000000000000900463ffffffff1680631515bc2b146100db5780632c4e722e1461010a578063355274ea146101355780634042b66f1461016057806342e94c901461018b5780634b6753bc146101e25780634f9359451461020d578063521eb2731461023c578063b25d7f5414610293578063b7a8807c146102be578063bb8b2b47146102e9578063ec8ac4d814610340578063ed5db87414610376578063fc0c546a146103a1575b6100d9336103f8565b005b3480156100e757600080fd5b506100f06104c6565b604051808215151515815260200191505060405180910390f35b34801561011657600080fd5b5061011f6104d2565b6040518082815260200191505060405180910390f35b34801561014157600080fd5b5061014a6104d8565b6040518082815260200191505060405180910390f35b34801561016c57600080fd5b506101756104de565b6040518082815260200191505060405180910390f35b34801561019757600080fd5b506101cc600480360381019080803573ffffffffffffffffffffffffffffffffffffffff1690602001909291905050506104e4565b6040518082815260200191505060405180910390f35b3480156101ee57600080fd5b506101f76104fc565b6040518082815260200191505060405180910390f35b34801561021957600080fd5b50610222610502565b604051808215151515815260200191505060405180910390f35b34801561024857600080fd5b50610251610511565b604051808273ffffffffffffffffffffffffffffffffffffffff1673ffffffffffffffffffffffffffffffffffffffff16815260200191505060405180910390f35b34801561029f57600080fd5b506102a8610537565b6040518082815260200191505060405180910390f35b3480156102ca57600080fd5b506102d361053d565b6040518082815260200191505060405180910390f35b3480156102f557600080fd5b5061032a600480360381019080803573ffffffffffffffffffffffffffffffffffffffff169060200190929190505050610543565b6040518082815260200191505060405180910390f35b610374600480360381019080803573ffffffffffffffffffffffffffffffffffffffff1690602001909291905050506103f8565b005b34801561038257600080fd5b5061038b61058c565b6040518082815260200191505060405180910390f35b3480156103ad57600080fd5b506103b6610592565b604051808273ffffffffffffffffffffffffffffffffffffffff1673ffffffffffffffffffffffffffffffffffffffff16815260200191505060405180910390f35b60008034915061040883836105b7565b61041182610684565b9050610428826003546106a290919063ffffffff16565b60038190555061043883826106be565b8273ffffffffffffffffffffffffffffffffffffffff163373ffffffffffffffffffffffffffffffffffffffff167f623b3804fa71d67900d064613da8f94b9617215ee90799290593e1745087ad188484604051808381526020018281526020019250505060405180910390a36104af83836106cc565b6104b76106d0565b6104c1838361073b565b505050565b60006006544211905090565b60025481565b60045481565b60035481565b60096020528060005260406000206000915090505481565b60065481565b60006004546003541015905090565b600160009054906101000a900473ffffffffffffffffffffffffffffffffffffffff1681565b60075481565b60055481565b6000600960008373ffffffffffffffffffffffffffffffffffffffff1673ffffffffffffffffffffffffffffffffffffffff168152602001908152602001600020549050919050565b60085481565b6000809054906101000a900473ffffffffffffffffffffffffffffffffffffffff1681565b6000806105c4848461073f565b600960008573ffffffffffffffffffffffffffffffffffffffff1673ffffffffffffffffffffffffffffffffffffffff16815260200190815260200160002054915061061983836106a290919063ffffffff16565b9050600754811015801561062f57506008548111155b151561063a57600080fd5b80600960008673ffffffffffffffffffffffffffffffffffffffff1673ffffffffffffffffffffffffffffffffffffffff1681526020019081526020016000208190555050505050565b600061069b6002548361076c90919063ffffffff16565b9050919050565b600081830190508281101515156106b557fe5b80905092915050565b6106c882826107a4565b5050565b5050565b600160009054906101000a900473ffffffffffffffffffffffffffffffffffffffff1673ffffffffffffffffffffffffffffffffffffffff166108fc349081150290604051600060405180830381858888f19350505050158015610738573d6000803e3d6000fd5b50565b5050565b600554421015801561075357506006544211155b151561075e57600080fd5b61076882826108b2565b5050565b60008083141561077f576000905061079e565b818302905081838281151561079057fe5b0414151561079a57fe5b8090505b92915050565b6000809054906101000a900473ffffffffffffffffffffffffffffffffffffffff1673ffffffffffffffffffffffffffffffffffffffff166340c10f1983836040518363ffffffff167c0100000000000000000000000000000000000000000000000000000000028152600401808373ffffffffffffffffffffffffffffffffffffffff1673ffffffffffffffffffffffffffffffffffffffff16815260200182815260200192505050602060405180830381600087803b15801561086857600080fd5b505af115801561087c573d6000803e3d6000fd5b505050506040513d602081101561089257600080fd5b810190808051906020019092919050505015156108ae57600080fd5b5050565b6108bc82826108e5565b6004546108d4826003546106a290919063ffffffff16565b111515156108e157600080fd5b5050565b600073ffffffffffffffffffffffffffffffffffffffff168273ffffffffffffffffffffffffffffffffffffffff161415151561092157600080fd5b6000811415151561093157600080fd5b50505600a165627a7a7230582099fc5b7c495a71ad44ab7ccfbd792c4e34677e28fd6fbedef0b962229d2a27940029",
  "source": "pragma solidity >=0.4.23;\r\n\r\nimport \"openzeppelin-solidity/contracts/crowdsale/Crowdsale.sol\";\r\nimport \"openzeppelin-solidity/contracts/crowdsale/emission/MintedCrowdsale.sol\";\r\nimport \"openzeppelin-solidity/contracts/crowdsale/validation/CappedCrowdsale.sol\";\r\nimport \"openzeppelin-solidity/contracts/crowdsale/validation/TimedCrowdsale.sol\";\r\nimport \"openzeppelin-solidity/contracts/crowdsale/validation/WhitelistedCrowdsale.sol\";\r\n\r\ncontract DappTokenCrowdsale is Crowdsale, MintedCrowdsale, CappedCrowdsale, TimedCrowdsale {\r\n\r\n    //Minimum investor contribution -> 0.002 Ether\r\n    //Maximum investor contribution -> 5 Ether\r\n    uint256 public investorMinCap = 2000000000000000; // 0.002 ether\r\n    uint256 public investorHardCap = 5000000000000000000; // 5 ether\r\n    mapping(address => uint256) public contributions;\r\n\r\n    constructor (\r\n        uint256 _rate, \r\n        address _walllet, \r\n        ERC20 _token, \r\n        uint256 _cap,\r\n        uint256 _openingTime,\r\n        uint256 _closingTime\r\n        ) \r\n        Crowdsale(_rate, _walllet, _token)\r\n        CappedCrowdsale(_cap)\r\n        TimedCrowdsale(_openingTime, _closingTime)\r\n        public \r\n    {\r\n\r\n    }\r\n\r\n    function getUserContribution (address _beneficiary) public view returns (uint256)\r\n    {\r\n        return contributions[_beneficiary];\r\n    }\r\n\r\n    //internal override function\r\n    function _preValidatePurchase (address _beneficiary, uint256 _weiAmount) internal\r\n    {\r\n        super._preValidatePurchase(_beneficiary, _weiAmount);  //crowdsale func\r\n        uint256 _existingContribution = contributions[_beneficiary];\r\n        uint256 _newContribution = _existingContribution.add(_weiAmount);\r\n        require(_newContribution >= investorMinCap && _newContribution <= investorHardCap);\r\n        contributions[_beneficiary] = _newContribution;\r\n    }\r\n\r\n}",
  "sourcePath": "src\\contracts\\DappTokenCrowdsale.sol",
  "compiler": {
    "name": "solc",
    "version": "0.4.24+commit.e67f0147.Emscripten.clang"
  },
  "schemaVersion": "2.0.0",
  "updatedAt": "2021-09-04T12:14:16.653Z"
}